{
  "_format": "hh-sol-artifact-1",
  "contractName": "Assessment",
  "sourceName": "contracts/Assessment.sol",
  "abi": [
    {
      "inputs": [],
      "name": "getMessage",
      "outputs": [
        {
          "internalType": "string",
          "name": "",
          "type": "string"
        }
      ],
      "stateMutability": "view",
      "type": "function"
    },
    {
      "inputs": [],
      "name": "getValue",
      "outputs": [
        {
          "internalType": "uint256",
          "name": "",
          "type": "uint256"
        }
      ],
      "stateMutability": "view",
      "type": "function"
    },
    {
      "inputs": [
        {
          "internalType": "string",
          "name": "newMessage",
          "type": "string"
        }
      ],
      "name": "setMessage",
      "outputs": [],
      "stateMutability": "nonpayable",
      "type": "function"
    },
    {
      "inputs": [
        {
          "internalType": "uint256",
          "name": "newValue",
          "type": "uint256"
        }
      ],
      "name": "setValue",
      "outputs": [],
      "stateMutability": "nonpayable",
      "type": "function"
    }
  ],
  "bytecode": "0x608060405234801561001057600080fd5b50610762806100206000396000f3fe608060405234801561001057600080fd5b506004361061004c5760003560e01c80632096525514610051578063368b87721461006f578063552410771461008b578063ce6d41de146100a7575b600080fd5b6100596100c5565b6040516100669190610196565b60405180910390f35b6100896004803603810190610084919061030b565b6100ce565b005b6100a560048036038101906100a09190610380565b6100e1565b005b6100af6100eb565b6040516100bc919061042c565b60405180910390f35b60008054905090565b80600190816100dd919061065a565b5050565b8060008190555050565b6060600180546100fa9061047d565b80601f01602080910402602001604051908101604052809291908181526020018280546101269061047d565b80156101735780601f1061014857610100808354040283529160200191610173565b820191906000526020600020905b81548152906001019060200180831161015657829003601f168201915b5050505050905090565b6000819050919050565b6101908161017d565b82525050565b60006020820190506101ab6000830184610187565b92915050565b6000604051905090565b600080fd5b600080fd5b600080fd5b600080fd5b6000601f19601f8301169050919050565b7f4e487b7100000000000000000000000000000000000000000000000000000000600052604160045260246000fd5b610218826101cf565b810181811067ffffffffffffffff82111715610237576102366101e0565b5b80604052505050565b600061024a6101b1565b9050610256828261020f565b919050565b600067ffffffffffffffff821115610276576102756101e0565b5b61027f826101cf565b9050602081019050919050565b82818337600083830152505050565b60006102ae6102a98461025b565b610240565b9050828152602081018484840111156102ca576102c96101ca565b5b6102d584828561028c565b509392505050565b600082601f8301126102f2576102f16101c5565b5b813561030284826020860161029b565b91505092915050565b600060208284031215610321576103206101bb565b5b600082013567ffffffffffffffff81111561033f5761033e6101c0565b5b61034b848285016102dd565b91505092915050565b61035d8161017d565b811461036857600080fd5b50565b60008135905061037a81610354565b92915050565b600060208284031215610396576103956101bb565b5b60006103a48482850161036b565b91505092915050565b600081519050919050565b600082825260208201905092915050565b60005b838110156103e75780820151818401526020810190506103cc565b60008484015250505050565b60006103fe826103ad565b61040881856103b8565b93506104188185602086016103c9565b610421816101cf565b840191505092915050565b6000602082019050818103600083015261044681846103f3565b905092915050565b7f4e487b7100000000000000000000000000000000000000000000000000000000600052602260045260246000fd5b6000600282049050600182168061049557607f821691505b6020821081036104a8576104a761044e565b5b50919050565b60008190508160005260206000209050919050565b60006020601f8301049050919050565b600082821b905092915050565b6000600883026105107fffffffffffffffffffffffffffffffffffffffffffffffffffffffffffffffff826104d3565b61051a86836104d3565b95508019841693508086168417925050509392505050565b6000819050919050565b600061055761055261054d8461017d565b610532565b61017d565b9050919050565b6000819050919050565b6105718361053c565b61058561057d8261055e565b8484546104e0565b825550505050565b600090565b61059a61058d565b6105a5818484610568565b505050565b5b818110156105c9576105be600082610592565b6001810190506105ab565b5050565b601f82111561060e576105df816104ae565b6105e8846104c3565b810160208510156105f7578190505b61060b610603856104c3565b8301826105aa565b50505b505050565b600082821c905092915050565b600061063160001984600802610613565b1980831691505092915050565b600061064a8383610620565b9150826002028217905092915050565b610663826103ad565b67ffffffffffffffff81111561067c5761067b6101e0565b5b610686825461047d565b6106918282856105cd565b600060209050601f8311600181146106c457600084156106b2578287015190505b6106bc858261063e565b865550610724565b601f1984166106d2866104ae565b60005b828110156106fa578489015182556001820191506020850194506020810190506106d5565b868310156107175784890151610713601f891682610620565b8355505b6001600288020188555050505b50505050505056fea26469706673582212206d9a123c1c679619640698cbb98dd59c6ca0a45754ea38fa4fd4538b145aee0f64736f6c63430008110033",
  "linkReferences": {},
  "deployedLinkReferences": {}
}